{
  "_format": "hh-sol-artifact-1",
  "contractName": "Vote",
  "sourceName": "contracts/Vote.sol",
  "abi": [
    {
      "inputs": [],
      "stateMutability": "nonpayable",
      "type": "constructor"
    },
    {
      "anonymous": false,
      "inputs": [
        {
          "indexed": true,
          "internalType": "uint256",
          "name": "candidateId",
          "type": "uint256"
        },
        {
          "indexed": false,
          "internalType": "string",
          "name": "name",
          "type": "string"
        }
      ],
      "name": "CandidateRegistered",
      "type": "event"
    },
    {
      "anonymous": false,
      "inputs": [
        {
          "indexed": true,
          "internalType": "uint256",
          "name": "winnerId",
          "type": "uint256"
        },
        {
          "indexed": false,
          "internalType": "string",
          "name": "name",
          "type": "string"
        },
        {
          "indexed": false,
          "internalType": "uint256",
          "name": "voteCount",
          "type": "uint256"
        }
      ],
      "name": "ResultAnnounced",
      "type": "event"
    },
    {
      "anonymous": false,
      "inputs": [
        {
          "indexed": true,
          "internalType": "address",
          "name": "voter",
          "type": "address"
        },
        {
          "indexed": true,
          "internalType": "uint256",
          "name": "candidateId",
          "type": "uint256"
        }
      ],
      "name": "VoteCasted",
      "type": "event"
    },
    {
      "anonymous": false,
      "inputs": [
        {
          "indexed": true,
          "internalType": "uint256",
          "name": "endDate",
          "type": "uint256"
        }
      ],
      "name": "VotingEnded",
      "type": "event"
    },
    {
      "anonymous": false,
      "inputs": [
        {
          "indexed": true,
          "internalType": "uint256",
          "name": "startDate",
          "type": "uint256"
        },
        {
          "indexed": true,
          "internalType": "uint256",
          "name": "endDate",
          "type": "uint256"
        }
      ],
      "name": "VotingStarted",
      "type": "event"
    },
    {
      "inputs": [],
      "name": "admin",
      "outputs": [
        {
          "internalType": "address",
          "name": "",
          "type": "address"
        }
      ],
      "stateMutability": "view",
      "type": "function"
    },
    {
      "inputs": [],
      "name": "announceResult",
      "outputs": [],
      "stateMutability": "nonpayable",
      "type": "function"
    },
    {
      "inputs": [
        {
          "internalType": "uint256",
          "name": "",
          "type": "uint256"
        }
      ],
      "name": "candidates",
      "outputs": [
        {
          "internalType": "string",
          "name": "name",
          "type": "string"
        },
        {
          "internalType": "uint256",
          "name": "voteCount",
          "type": "uint256"
        }
      ],
      "stateMutability": "view",
      "type": "function"
    },
    {
      "inputs": [
        {
          "internalType": "uint256",
          "name": "_candidateId",
          "type": "uint256"
        }
      ],
      "name": "castVote",
      "outputs": [],
      "stateMutability": "nonpayable",
      "type": "function"
    },
    {
      "inputs": [],
      "name": "endVoting",
      "outputs": [],
      "stateMutability": "nonpayable",
      "type": "function"
    },
    {
      "inputs": [],
      "name": "getCandidates",
      "outputs": [
        {
          "components": [
            {
              "internalType": "string",
              "name": "name",
              "type": "string"
            },
            {
              "internalType": "uint256",
              "name": "voteCount",
              "type": "uint256"
            }
          ],
          "internalType": "struct Vote.Candidate[]",
          "name": "",
          "type": "tuple[]"
        }
      ],
      "stateMutability": "view",
      "type": "function"
    },
    {
      "inputs": [
        {
          "internalType": "string",
          "name": "_name",
          "type": "string"
        }
      ],
      "name": "registerCandidate",
      "outputs": [],
      "stateMutability": "nonpayable",
      "type": "function"
    },
    {
      "inputs": [
        {
          "internalType": "address",
          "name": "_voter",
          "type": "address"
        }
      ],
      "name": "registerVoter",
      "outputs": [],
      "stateMutability": "nonpayable",
      "type": "function"
    },
    {
      "inputs": [],
      "name": "startVoting",
      "outputs": [],
      "stateMutability": "nonpayable",
      "type": "function"
    },
    {
      "inputs": [
        {
          "internalType": "address",
          "name": "",
          "type": "address"
        }
      ],
      "name": "voters",
      "outputs": [
        {
          "internalType": "bool",
          "name": "isRegistered",
          "type": "bool"
        },
        {
          "internalType": "bool",
          "name": "hasVoted",
          "type": "bool"
        },
        {
          "internalType": "uint256",
          "name": "votedCandidateId",
          "type": "uint256"
        }
      ],
      "stateMutability": "view",
      "type": "function"
    },
    {
      "inputs": [],
      "name": "votingEnded",
      "outputs": [
        {
          "internalType": "bool",
          "name": "",
          "type": "bool"
        }
      ],
      "stateMutability": "view",
      "type": "function"
    },
    {
      "inputs": [],
      "name": "votingStarted",
      "outputs": [
        {
          "internalType": "bool",
          "name": "",
          "type": "bool"
        }
      ],
      "stateMutability": "view",
      "type": "function"
    }
  ],
  "bytecode": "0x608060405234801561001057600080fd5b50336000806101000a81548173ffffffffffffffffffffffffffffffffffffffff021916908373ffffffffffffffffffffffffffffffffffffffff160217905550611e05806100606000396000f3fe608060405234801561001057600080fd5b50600436106100b45760003560e01c80639d5a0529116100715780639d5a0529146101685780639eb88db614610186578063a3ec138d146101a2578063c3403ddf146101d4578063f4e11bbe146101de578063f851a440146101e8576100b4565b806306a49fce146100b95780631ec6b60a146100d75780633477ee2e146100e157806338db6dd3146101125780633eb76b9c1461012e57806383d948b71461014a575b600080fd5b6100c1610206565b6040516100ce9190611071565b60405180910390f35b6100df610301565b005b6100fb60048036038101906100f691906110d3565b61049a565b604051610109929190611159565b60405180910390f35b61012c600480360381019061012791906111e7565b610556565b005b610148600480360381019061014391906110d3565b6106d1565b005b61015261090f565b60405161015f919061122f565b60405180910390f35b610170610922565b60405161017d919061122f565b60405180910390f35b6101a0600480360381019061019b919061137f565b610935565b005b6101bc60048036038101906101b791906111e7565b610b62565b6040516101cb939291906113c8565b60405180910390f35b6101dc610ba6565b005b6101e6610ce6565b005b6101f0610ea5565b6040516101fd919061140e565b60405180910390f35b60606002805480602002602001604051908101604052809291908181526020016000905b828210156102f8578382906000526020600020906002020160405180604001604052908160008201805461025d90611458565b80601f016020809104026020016040519081016040528092919081815260200182805461028990611458565b80156102d65780601f106102ab576101008083540402835291602001916102d6565b820191906000526020600020905b8154815290600101906020018083116102b957829003601f168201915b505050505081526020016001820154815250508152602001906001019061022a565b50505050905090565b60008054906101000a900473ffffffffffffffffffffffffffffffffffffffff1673ffffffffffffffffffffffffffffffffffffffff163373ffffffffffffffffffffffffffffffffffffffff161461038f576040517f08c379a0000000000000000000000000000000000000000000000000000000008152600401610386906114fb565b60405180910390fd5b600060149054906101000a900460ff16156103df576040517f08c379a00000000000000000000000000000000000000000000000000000000081526004016103d690611567565b60405180910390fd5b600060028054905011610427576040517f08c379a000000000000000000000000000000000000000000000000000000000815260040161041e906115d3565b60405180910390fd5b6001600060146101000a81548160ff02191690831515021790555060008060156101000a81548160ff02191690831515021790555062093a804261046b9190611622565b427ff8c022056754dbacca05aff710dc315a2fa7699ae9309fda403cd1e55c11d40f60405160405180910390a3565b600281815481106104aa57600080fd5b90600052602060002090600202016000915090508060000180546104cd90611458565b80601f01602080910402602001604051908101604052809291908181526020018280546104f990611458565b80156105465780601f1061051b57610100808354040283529160200191610546565b820191906000526020600020905b81548152906001019060200180831161052957829003601f168201915b5050505050908060010154905082565b60008054906101000a900473ffffffffffffffffffffffffffffffffffffffff1673ffffffffffffffffffffffffffffffffffffffff163373ffffffffffffffffffffffffffffffffffffffff16146105e4576040517f08c379a00000000000000000000000000000000000000000000000000000000081526004016105db906114fb565b60405180910390fd5b600160008273ffffffffffffffffffffffffffffffffffffffff1673ffffffffffffffffffffffffffffffffffffffff16815260200190815260200160002060000160009054906101000a900460ff1615610674576040517f08c379a000000000000000000000000000000000000000000000000000000000815260040161066b906116a2565b60405180910390fd5b60018060008373ffffffffffffffffffffffffffffffffffffffff1673ffffffffffffffffffffffffffffffffffffffff16815260200190815260200160002060000160006101000a81548160ff02191690831515021790555050565b600060149054906101000a900460ff1680156106fa5750600060159054906101000a900460ff16155b610739576040517f08c379a00000000000000000000000000000000000000000000000000000000081526004016107309061170e565b60405180910390fd5b6000600160003373ffffffffffffffffffffffffffffffffffffffff1673ffffffffffffffffffffffffffffffffffffffff16815260200190815260200160002090508060000160009054906101000a900460ff166107cd576040517f08c379a00000000000000000000000000000000000000000000000000000000081526004016107c49061177a565b60405180910390fd5b8060000160019054906101000a900460ff161561081f576040517f08c379a0000000000000000000000000000000000000000000000000000000008152600401610816906117e6565b60405180910390fd5b6002805490508210610866576040517f08c379a000000000000000000000000000000000000000000000000000000000815260040161085d90611852565b60405180910390fd5b60018160000160016101000a81548160ff021916908315150217905550818160010181905550600282815481106108a05761089f611872565b5b906000526020600020906002020160010160008154809291906108c2906118a1565b9190505550813373ffffffffffffffffffffffffffffffffffffffff167fd0e6c39f2e086dc49f1524b47725526a56945cd1ff661f37976f1725a1e5698660405160405180910390a35050565b600060149054906101000a900460ff1681565b600060159054906101000a900460ff1681565b60008054906101000a900473ffffffffffffffffffffffffffffffffffffffff1673ffffffffffffffffffffffffffffffffffffffff163373ffffffffffffffffffffffffffffffffffffffff16146109c3576040517f08c379a00000000000000000000000000000000000000000000000000000000081526004016109ba906114fb565b60405180910390fd5b600060149054906101000a900460ff1615610a13576040517f08c379a0000000000000000000000000000000000000000000000000000000008152600401610a0a90611567565b60405180910390fd5b6000600280549050905060005b600280549050811015610ac257828051906020012060028281548110610a4957610a48611872565b5b9060005260206000209060020201600001604051610a67919061198c565b604051809103902003610aaf576040517f08c379a0000000000000000000000000000000000000000000000000000000008152600401610aa6906119ef565b60405180910390fd5b8080610aba906118a1565b915050610a20565b5060026040518060400160405280848152602001600081525090806001815401808255809150506001900390600052602060002090600202016000909190919091506000820151816000019081610b199190611bbb565b50602082015181600101555050807f96b6e1d9af8279de0ae4d01600bcae708bdb292c4a8f8f150aff92f5caf56a4283604051610b569190611c8d565b60405180910390a25050565b60016020528060005260406000206000915090508060000160009054906101000a900460ff16908060000160019054906101000a900460ff16908060010154905083565b60008054906101000a900473ffffffffffffffffffffffffffffffffffffffff1673ffffffffffffffffffffffffffffffffffffffff163373ffffffffffffffffffffffffffffffffffffffff1614610c34576040517f08c379a0000000000000000000000000000000000000000000000000000000008152600401610c2b906114fb565b60405180910390fd5b600060149054906101000a900460ff168015610c5d5750600060159054906101000a900460ff16155b610c9c576040517f08c379a0000000000000000000000000000000000000000000000000000000008152600401610c939061170e565b60405180910390fd5b6001600060156101000a81548160ff021916908315150217905550427f81eb7415440ff8e6c8e92606fd3b0e5e6a5c99ea90cdb63b41aec54e897312b360405160405180910390a2565b60008054906101000a900473ffffffffffffffffffffffffffffffffffffffff1673ffffffffffffffffffffffffffffffffffffffff163373ffffffffffffffffffffffffffffffffffffffff1614610d74576040517f08c379a0000000000000000000000000000000000000000000000000000000008152600401610d6b906114fb565b60405180910390fd5b600060159054906101000a900460ff16610dc3576040517f08c379a0000000000000000000000000000000000000000000000000000000008152600401610dba90611cfb565b60405180910390fd5b60008060005b600280549050811015610e42578160028281548110610deb57610dea611872565b5b9060005260206000209060020201600101541115610e2f5780925060028181548110610e1a57610e19611872565b5b90600052602060002090600202016001015491505b8080610e3a906118a1565b915050610dc9565b50817f050efc0ac66d1e9275e4e186e81270824f0b44aa616585a04c3835509ec80cd060028481548110610e7957610e78611872565b5b906000526020600020906002020160000183604051610e99929190611d9f565b60405180910390a25050565b60008054906101000a900473ffffffffffffffffffffffffffffffffffffffff1681565b600081519050919050565b600082825260208201905092915050565b6000819050602082019050919050565b600081519050919050565b600082825260208201905092915050565b60005b83811015610f2f578082015181840152602081019050610f14565b60008484015250505050565b6000601f19601f8301169050919050565b6000610f5782610ef5565b610f618185610f00565b9350610f71818560208601610f11565b610f7a81610f3b565b840191505092915050565b6000819050919050565b610f9881610f85565b82525050565b60006040830160008301518482036000860152610fbb8282610f4c565b9150506020830151610fd06020860182610f8f565b508091505092915050565b6000610fe78383610f9e565b905092915050565b6000602082019050919050565b600061100782610ec9565b6110118185610ed4565b93508360208202850161102385610ee5565b8060005b8581101561105f57848403895281516110408582610fdb565b945061104b83610fef565b925060208a01995050600181019050611027565b50829750879550505050505092915050565b6000602082019050818103600083015261108b8184610ffc565b905092915050565b6000604051905090565b600080fd5b600080fd5b6110b081610f85565b81146110bb57600080fd5b50565b6000813590506110cd816110a7565b92915050565b6000602082840312156110e9576110e861109d565b5b60006110f7848285016110be565b91505092915050565b600082825260208201905092915050565b600061111c82610ef5565b6111268185611100565b9350611136818560208601610f11565b61113f81610f3b565b840191505092915050565b61115381610f85565b82525050565b600060408201905081810360008301526111738185611111565b9050611182602083018461114a565b9392505050565b600073ffffffffffffffffffffffffffffffffffffffff82169050919050565b60006111b482611189565b9050919050565b6111c4816111a9565b81146111cf57600080fd5b50565b6000813590506111e1816111bb565b92915050565b6000602082840312156111fd576111fc61109d565b5b600061120b848285016111d2565b91505092915050565b60008115159050919050565b61122981611214565b82525050565b60006020820190506112446000830184611220565b92915050565b600080fd5b600080fd5b7f4e487b7100000000000000000000000000000000000000000000000000000000600052604160045260246000fd5b61128c82610f3b565b810181811067ffffffffffffffff821117156112ab576112aa611254565b5b80604052505050565b60006112be611093565b90506112ca8282611283565b919050565b600067ffffffffffffffff8211156112ea576112e9611254565b5b6112f382610f3b565b9050602081019050919050565b82818337600083830152505050565b600061132261131d846112cf565b6112b4565b90508281526020810184848401111561133e5761133d61124f565b5b611349848285611300565b509392505050565b600082601f8301126113665761136561124a565b5b813561137684826020860161130f565b91505092915050565b6000602082840312156113955761139461109d565b5b600082013567ffffffffffffffff8111156113b3576113b26110a2565b5b6113bf84828501611351565b91505092915050565b60006060820190506113dd6000830186611220565b6113ea6020830185611220565b6113f7604083018461114a565b949350505050565b611408816111a9565b82525050565b600060208201905061142360008301846113ff565b92915050565b7f4e487b7100000000000000000000000000000000000000000000000000000000600052602260045260246000fd5b6000600282049050600182168061147057607f821691505b60208210810361148357611482611429565b5b50919050565b7f4f6e6c792061646d696e2063616e20706572666f726d2074686973206163746960008201527f6f6e000000000000000000000000000000000000000000000000000000000000602082015250565b60006114e5602283611100565b91506114f082611489565b604082019050919050565b60006020820190508181036000830152611514816114d8565b9050919050565b7f566f74696e672068617320616c72656164792073746172746564000000000000600082015250565b6000611551601a83611100565b915061155c8261151b565b602082019050919050565b6000602082019050818103600083015261158081611544565b9050919050565b7f4e6f2063616e6469646174657320726567697374657265640000000000000000600082015250565b60006115bd601883611100565b91506115c882611587565b602082019050919050565b600060208201905081810360008301526115ec816115b0565b9050919050565b7f4e487b7100000000000000000000000000000000000000000000000000000000600052601160045260246000fd5b600061162d82610f85565b915061163883610f85565b92508282019050808211156116505761164f6115f3565b5b92915050565b7f566f74657220616c726561647920726567697374657265640000000000000000600082015250565b600061168c601883611100565b915061169782611656565b602082019050919050565b600060208201905081810360008301526116bb8161167f565b9050919050565b7f566f74696e67206973206e6f7420696e2070726f677265737300000000000000600082015250565b60006116f8601983611100565b9150611703826116c2565b602082019050919050565b60006020820190508181036000830152611727816116eb565b9050919050565b7f566f746572206973206e6f742072656769737465726564000000000000000000600082015250565b6000611764601783611100565b915061176f8261172e565b602082019050919050565b6000602082019050818103600083015261179381611757565b9050919050565b7f566f7465722068617320616c726561647920766f746564000000000000000000600082015250565b60006117d0601783611100565b91506117db8261179a565b602082019050919050565b600060208201905081810360008301526117ff816117c3565b9050919050565b7f496e76616c69642063616e646964617465204944000000000000000000000000600082015250565b600061183c601483611100565b915061184782611806565b602082019050919050565b6000602082019050818103600083015261186b8161182f565b9050919050565b7f4e487b7100000000000000000000000000000000000000000000000000000000600052603260045260246000fd5b60006118ac82610f85565b91507fffffffffffffffffffffffffffffffffffffffffffffffffffffffffffffffff82036118de576118dd6115f3565b5b600182019050919050565b600081905092915050565b60008190508160005260206000209050919050565b6000815461191681611458565b61192081866118e9565b9450600182166000811461193b576001811461195057611983565b60ff1983168652811515820286019350611983565b611959856118f4565b60005b8381101561197b5781548189015260018201915060208101905061195c565b838801955050505b50505092915050565b60006119988284611909565b915081905092915050565b7f43616e64696461746520616c7265616479207265676973746572656400000000600082015250565b60006119d9601c83611100565b91506119e4826119a3565b602082019050919050565b60006020820190508181036000830152611a08816119cc565b9050919050565b60008190508160005260206000209050919050565b60006020601f8301049050919050565b600082821b905092915050565b600060088302611a717fffffffffffffffffffffffffffffffffffffffffffffffffffffffffffffffff82611a34565b611a7b8683611a34565b95508019841693508086168417925050509392505050565b6000819050919050565b6000611ab8611ab3611aae84610f85565b611a93565b610f85565b9050919050565b6000819050919050565b611ad283611a9d565b611ae6611ade82611abf565b848454611a41565b825550505050565b600090565b611afb611aee565b611b06818484611ac9565b505050565b5b81811015611b2a57611b1f600082611af3565b600181019050611b0c565b5050565b601f821115611b6f57611b4081611a0f565b611b4984611a24565b81016020851015611b58578190505b611b6c611b6485611a24565b830182611b0b565b50505b505050565b600082821c905092915050565b6000611b9260001984600802611b74565b1980831691505092915050565b6000611bab8383611b81565b9150826002028217905092915050565b611bc482610ef5565b67ffffffffffffffff811115611bdd57611bdc611254565b5b611be78254611458565b611bf2828285611b2e565b600060209050601f831160018114611c255760008415611c13578287015190505b611c1d8582611b9f565b865550611c85565b601f198416611c3386611a0f565b60005b82811015611c5b57848901518255600182019150602085019450602081019050611c36565b86831015611c785784890151611c74601f891682611b81565b8355505b6001600288020188555050505b505050505050565b60006020820190508181036000830152611ca78184611111565b905092915050565b7f566f74696e6720686173206e6f7420656e646564207965740000000000000000600082015250565b6000611ce5601883611100565b9150611cf082611caf565b602082019050919050565b60006020820190508181036000830152611d1481611cd8565b9050919050565b60008154611d2881611458565b611d328186611100565b94506001821660008114611d4d5760018114611d6357611d96565b60ff198316865281151560200286019350611d96565b611d6c85611a0f565b60005b83811015611d8e57815481890152600182019150602081019050611d6f565b808801955050505b50505092915050565b60006040820190508181036000830152611db98185611d1b565b9050611dc8602083018461114a565b939250505056fea26469706673582212207a383b2dc2735187f06d19badf18a7b13b0b60aa8d340a87c90e633d3fa5f6b764736f6c63430008130033",
  "linkReferences": {},
  "deployedLinkReferences": {}
}